{
  "_format": "hh-sol-artifact-1",
  "contractName": "TTest",
  "sourceName": "contracts/TTest.sol",
  "abi": [
    {
      "inputs": [],
      "stateMutability": "nonpayable",
      "type": "constructor"
    },
    {
      "inputs": [],
      "name": "speak",
      "outputs": [
        {
          "internalType": "string",
          "name": "",
          "type": "string"
        }
      ],
      "stateMutability": "view",
      "type": "function"
    },
    {
      "inputs": [
        {
          "internalType": "string",
          "name": "m",
          "type": "string"
        },
        {
          "internalType": "string",
          "name": "p",
          "type": "string"
        },
        {
          "internalType": "string",
          "name": "w",
          "type": "string"
        }
      ],
      "name": "write",
      "outputs": [],
      "stateMutability": "nonpayable",
      "type": "function"
    }
  ],
  "bytecode": "0x6080604052348015600f57600080fd5b5060006003819055506000600481905550600a6005819055506117de806100376000396000f3fe608060405234801561001057600080fd5b50600436106100365760003560e01c80633a083b3a1461003b57806350d8531514610057575b600080fd5b61005560048036038101906100509190610caa565b610075565b005b61005f610231565b60405161006c9190610dd0565b60405180910390f35b60055460008054905011156100bf576040517f08c379a00000000000000000000000000000000000000000000000000000000081526004016100b690610e3e565b60405180910390fd5b60006004540361016d576000819080600181540180825580915050600190039060005260206000200160009091909190915090816100fd9190611074565b506001829080600181540180825580915050600190039060005260206000200160009091909190915090816101329190611074565b506002839080600181540180825580915050600190039060005260206000200160009091909190915090816101679190611074565b506101f8565b8060006003548154811061018457610183611146565b5b90600052602060002001908161019a9190611074565b50816001600354815481106101b2576101b1611146565b5b9060005260206000200190816101c89190611074565b50826002600354815481106101e0576101df611146565b5b9060005260206000200190816101f69190611074565b505b6003600081548092919061020b906111a4565b91905055506005546003540361022c57600160048190555060006003819055505b505050565b606080600060035414801561024857506000600454145b156102725760405160200161025c90611269565b60405160208183030381529060405290506104b0565b61027a6104b7565b6102ba6040518060400160405280601181526020017f202020204c4153542031302047414d4553000000000000000000000000000000815250605561056f565b6102c26104b7565b6040516020016102d493929190611347565b6040516020818303038152906040529050806103266040518060400160405280600181526020017f6900000000000000000000000000000000000000000000000000000000000000815250600261056f565b6103666040518060400160405280600b81526020017f202047616d655f6d6f6465000000000000000000000000000000000000000000815250600d61056f565b6103a66040518060400160405280600881526020017f202057696e6e6572000000000000000000000000000000000000000000000000815250600b61056f565b6103e66040518060400160405280600981526020017f2020506c61796572730000000000000000000000000000000000000000000000815250603261056f565b6103ee6104b7565b604051602001610403969594939291906113d5565b60405160208183030381529060405290508061042360035460008061065f565b604051602001610434929190611443565b6040516020818303038152906040529050600160045403610484578061046160055460035460035461065f565b604051602001610472929190611443565b60405160208183030381529060405290505b8061048d6104b7565b60405160200161049e929190611443565b60405160208183030381529060405290505b8091505090565b606060008067ffffffffffffffff8111156104d5576104d4610b7f565b5b6040519080825280601f01601f1916602001820160405280156105075781602001600182028036833780820191505090505b50905060005b6008811015610545578160405160200161052791906114b3565b6040516020818303038152906040529150808060010191505061050d565b50806040516020016105579190611521565b60405160208183030381529060405290508091505090565b606060008351836105809190611543565b905060008067ffffffffffffffff81111561059e5761059d610b7f565b5b6040519080825280601f01601f1916602001820160405280156105d05781602001600182028036833780820191505090505b50905080856040516020016105e69291906115c3565b604051602081830303815290604052905060005b82811015610631578160405160200161061391906115f2565b604051602081830303815290604052915080806001019150506105fa565b50806040516020016106439190611660565b6040516020818303038152906040529050809250505092915050565b606060008067ffffffffffffffff81111561067d5761067c610b7f565b5b6040519080825280601f01601f1916602001820160405280156106af5781602001600182028036833780820191505090505b50905060008590505b8481111561092f576001816106cd9190611543565b9050816106e36106dc8661093b565b600261056f565b610794600284815481106106fa576106f9611146565b5b90600052602060002001805461070f90610e8d565b80601f016020809104026020016040519081016040528092919081815260200182805461073b90610e8d565b80156107885780601f1061075d57610100808354040283529160200191610788565b820191906000526020600020905b81548152906001019060200180831161076b57829003601f168201915b5050505050600d61056f565b610845600085815481106107ab576107aa611146565b5b9060005260206000200180546107c090610e8d565b80601f01602080910402602001604051908101604052809291908181526020018280546107ec90610e8d565b80156108395780601f1061080e57610100808354040283529160200191610839565b820191906000526020600020905b81548152906001019060200180831161081c57829003601f168201915b5050505050600b61056f565b6108f66001868154811061085c5761085b611146565b5b90600052602060002001805461087190610e8d565b80601f016020809104026020016040519081016040528092919081815260200182805461089d90610e8d565b80156108ea5780601f106108bf576101008083540402835291602001916108ea565b820191906000526020600020905b8154815290600101906020018083116108cd57829003601f168201915b5050505050603261056f565b60405160200161090a959493929190611682565b604051602081830303815290604052915060018461092891906116e3565b93506106b8565b81925050509392505050565b606060008203610982576040518060400160405280600181526020017f30000000000000000000000000000000000000000000000000000000000000008152509050610b4b565b6000606467ffffffffffffffff81111561099f5761099e610b7f565b5b6040519080825280601f01601f1916602001820160405280156109d15781602001600182028036833780820191505090505b50905060005b60008414610a63576000600a856109ee9190611746565b9050600a856109fd9190611777565b9450806030610a0c91906116e3565b60f81b838380610a1b906111a4565b945081518110610a2e57610a2d611146565b5b60200101907effffffffffffffffffffffffffffffffffffffffffffffffffffffffffffff1916908160001a905350506109d7565b60008167ffffffffffffffff811115610a7f57610a7e610b7f565b5b6040519080825280601f01601f191660200182016040528015610ab15781602001600182028036833780820191505090505b50905060005b82811015610b43578360018285610ace9190611543565b610ad89190611543565b81518110610ae957610ae8611146565b5b602001015160f81c60f81b828281518110610b0757610b06611146565b5b60200101907effffffffffffffffffffffffffffffffffffffffffffffffffffffffffffff1916908160001a9053508080600101915050610ab7565b508093505050505b919050565b6000604051905090565b600080fd5b600080fd5b600080fd5b600080fd5b6000601f19601f8301169050919050565b7f4e487b7100000000000000000000000000000000000000000000000000000000600052604160045260246000fd5b610bb782610b6e565b810181811067ffffffffffffffff82111715610bd657610bd5610b7f565b5b80604052505050565b6000610be9610b50565b9050610bf58282610bae565b919050565b600067ffffffffffffffff821115610c1557610c14610b7f565b5b610c1e82610b6e565b9050602081019050919050565b82818337600083830152505050565b6000610c4d610c4884610bfa565b610bdf565b905082815260208101848484011115610c6957610c68610b69565b5b610c74848285610c2b565b509392505050565b600082601f830112610c9157610c90610b64565b5b8135610ca1848260208601610c3a565b91505092915050565b600080600060608486031215610cc357610cc2610b5a565b5b600084013567ffffffffffffffff811115610ce157610ce0610b5f565b5b610ced86828701610c7c565b935050602084013567ffffffffffffffff811115610d0e57610d0d610b5f565b5b610d1a86828701610c7c565b925050604084013567ffffffffffffffff811115610d3b57610d3a610b5f565b5b610d4786828701610c7c565b9150509250925092565b600081519050919050565b600082825260208201905092915050565b60005b83811015610d8b578082015181840152602081019050610d70565b60008484015250505050565b6000610da282610d51565b610dac8185610d5c565b9350610dbc818560208601610d6d565b610dc581610b6e565b840191505092915050565b60006020820190508181036000830152610dea8184610d97565b905092915050565b7f4d6178696d756d20656e74726965732072656163686564000000000000000000600082015250565b6000610e28601783610d5c565b9150610e3382610df2565b602082019050919050565b60006020820190508181036000830152610e5781610e1b565b9050919050565b7f4e487b7100000000000000000000000000000000000000000000000000000000600052602260045260246000fd5b60006002820490506001821680610ea557607f821691505b602082108103610eb857610eb7610e5e565b5b50919050565b60008190508160005260206000209050919050565b60006020601f8301049050919050565b600082821b905092915050565b600060088302610f207fffffffffffffffffffffffffffffffffffffffffffffffffffffffffffffffff82610ee3565b610f2a8683610ee3565b95508019841693508086168417925050509392505050565b6000819050919050565b6000819050919050565b6000610f71610f6c610f6784610f42565b610f4c565b610f42565b9050919050565b6000819050919050565b610f8b83610f56565b610f9f610f9782610f78565b848454610ef0565b825550505050565b600090565b610fb4610fa7565b610fbf818484610f82565b505050565b5b81811015610fe357610fd8600082610fac565b600181019050610fc5565b5050565b601f82111561102857610ff981610ebe565b61100284610ed3565b81016020851015611011578190505b61102561101d85610ed3565b830182610fc4565b50505b505050565b600082821c905092915050565b600061104b6000198460080261102d565b1980831691505092915050565b6000611064838361103a565b9150826002028217905092915050565b61107d82610d51565b67ffffffffffffffff81111561109657611095610b7f565b5b6110a08254610e8d565b6110ab828285610fe7565b600060209050601f8311600181146110de57600084156110cc578287015190505b6110d68582611058565b86555061113e565b601f1984166110ec86610ebe565b60005b82811015611114578489015182556001820191506020850194506020810190506110ef565b86831015611131578489015161112d601f89168261103a565b8355505b6001600288020188555050505b505050505050565b7f4e487b7100000000000000000000000000000000000000000000000000000000600052603260045260246000fd5b7f4e487b7100000000000000000000000000000000000000000000000000000000600052601160045260246000fd5b60006111af82610f42565b91507fffffffffffffffffffffffffffffffffffffffffffffffffffffffffffffffff82036111e1576111e0611175565b5b600182019050919050565b600081905092915050565b7f2a5468657265206973206e6f207265636f7264206f66207468652070696e672060008201527f706f6e672067616d652a00000000000000000000000000000000000000000000602082015250565b6000611253602a836111ec565b915061125e826111f7565b602a82019050919050565b600061127482611246565b9150819050919050565b600061128982610d51565b61129381856111ec565b93506112a3818560208601610d6d565b80840191505092915050565b7f2a00000000000000000000000000000000000000000000000000000000000000600082015250565b60006112e56001836111ec565b91506112f0826112af565b600182019050919050565b7f0a00000000000000000000000000000000000000000000000000000000000000600082015250565b60006113316001836111ec565b915061133c826112fb565b600182019050919050565b6000611353828661127e565b915061135e826112d8565b915061136a828561127e565b915061137582611324565b9150611381828461127e565b9150819050949350505050565b600081519050919050565b600081905092915050565b60006113af8261138e565b6113b98185611399565b93506113c9818560208601610d6d565b80840191505092915050565b60006113e182896113a4565b91506113ec826112d8565b91506113f8828861127e565b9150611404828761127e565b9150611410828661127e565b915061141c828561127e565b915061142782611324565b9150611433828461127e565b9150819050979650505050505050565b600061144f82856113a4565b915061145b828461127e565b91508190509392505050565b7f2a2a2a2a2a2a2a2a2a2a2a000000000000000000000000000000000000000000600082015250565b600061149d600b836111ec565b91506114a882611467565b600b82019050919050565b60006114bf82846113a4565b91506114ca82611490565b915081905092915050565b7f2a0a000000000000000000000000000000000000000000000000000000000000600082015250565b600061150b6002836111ec565b9150611516826114d5565b600282019050919050565b600061152d82846113a4565b9150611538826114fe565b915081905092915050565b600061154e82610f42565b915061155983610f42565b925082820390508181111561157157611570611175565b5b92915050565b7f2000000000000000000000000000000000000000000000000000000000000000600082015250565b60006115ad6001836111ec565b91506115b882611577565b600182019050919050565b60006115cf82856113a4565b91506115da826115a0565b91506115e6828461127e565b91508190509392505050565b60006115fe82846113a4565b9150611609826115a0565b915081905092915050565b7f202a000000000000000000000000000000000000000000000000000000000000600082015250565b600061164a6002836111ec565b915061165582611614565b600282019050919050565b600061166c82846113a4565b91506116778261163d565b915081905092915050565b600061168e82886113a4565b9150611699826112d8565b91506116a5828761127e565b91506116b1828661127e565b91506116bd828561127e565b91506116c9828461127e565b91506116d482611324565b91508190509695505050505050565b60006116ee82610f42565b91506116f983610f42565b925082820190508082111561171157611710611175565b5b92915050565b7f4e487b7100000000000000000000000000000000000000000000000000000000600052601260045260246000fd5b600061175182610f42565b915061175c83610f42565b92508261176c5761176b611717565b5b828206905092915050565b600061178282610f42565b915061178d83610f42565b92508261179d5761179c611717565b5b82820490509291505056fea26469706673582212201f1827f0c4e14b571e82621d51fc0811089dd9de72c99cbc141e5340b8f143a464736f6c634300081b0033",
  "linkReferences": {},
  "deployedLinkReferences": {}
}